:100000000C9426010C9447010C9447010C94470171
:100010000C9447010C9447010C9447010C94470140
:100020000C9447010C9447010C9447010C94470130
:100030000C9447010C9447010C9447010C94470120
:100040000C9447010C9447010C9447010C94470110
:100050000C9447010C9447010C9447010C94B40292
:100060000C9447010C9447010C9447010C944701F0
:100070000C9447010C9447010C9447010C944701E0
:100080000C9447010C9447010C9447010C944701D0
:100090000C9447010C9447010C9447010C944701C0
:1000A0000C9447010C9447010C9447010C944701B0
:1000B0000C9447010C9447010C9447010C944701A0
:1000C0000C9447010C9447010C9447010C94470190
:1000D0000C9447010C9447010C9447010C94470180
:1000E0000C9447010C9486010C94A7010C949E017A
:1000F0000C949A010C947C010C946D010C94900169
:100100000C94A8010C9467010C9475010C94710176
:100110000C9479010C9467020C948C010C94A2014C
:100120000C94AC010C9494010C948201000020000A
:100130002300260029002C002F00320000010000BF
:1001400003010601090100002100240027002A0004
:100150002D003000330001010000040107010A01F5
:1001600000002200250028002B002E003100340062
:1001700002010000050108010B0105050505070541
:1001800008080808020202020A0A08080404040413
:10019000010101010101010103030303030303033F
:1001A000040707070C0C0C0C0C0C0C0C02020202CE
:1001B00006060606060606060B0B0B0B0B0B0B0BB7
:1001C0000102102020080810204010204080020169
:1001D000020108040201010204081020408080404E
:1001E000201008040201800402018040201008044D
:1001F00002010804020101020408102040800102EB
:1002000004081020408000000A0B02090C0D0E08A3
:1002100007030401000000000000000000000000CF
:1002200000000000000000000000000000000000CE
:10023000000012111000000000000000000000008B
:1002400000000000000000000000000011241FBE9C
:10025000CFEFD1E2DEBFCDBF00E00CBF12E0A0E0E7
:10026000B2E0ECE7F7E000E00BBF02C007900D92B0
:10027000A630B107D9F722E0A6E0B2E001C01D9296
:10028000AF30B207E1F70E94FE020C94BC030C945D
:1002900000008150823108F05AC0E82FF0E0882732
:1002A000EB5AFE4F8F4F0C94B4037501790167012F
:1002B0006D017101A7017C01820186018C01900111
:1002C00094019A019E01A701A201A801AC018091AD
:1002D00080008F77809380000895809180008F7DCB
:1002E000F9CF80918000877FF5CF84B58F7784BD6B
:1002F000089584B58F7DFBCF8091B0008F77809378
:10030000B00008958091B0008F7DF9CF809190006A
:100310008F77809390000895809190008F7DF9CF22
:1003200080919000877FF5CF8091A0008F77809398
:10033000A00008958091A0008F7DF9CF8091A0004A
:10034000877FF5CF809120018F77809320010895DA
:10035000809120018F7DF9CF80912001877FF5CF9B
:100360001F93CF93DF93282F30E0F901EA5FFD4F11
:100370008491F901E054FE4FD491F901E658FE4F03
:10038000C491CC23A9F0162F81110E944901EC2FB2
:10039000F0E0EE0FFF1FE05AFE4FA591B4918FB72A
:1003A000F894EC91111108C0D095DE23DC938FBF37
:1003B000DF91CF911F910895DE2BF8CFCF93DF937C
:1003C00090E0FC01E054FE4F249186589E4FFC01C2
:1003D00084918823D1F090E0880F991FFC01EA5B9B
:1003E000FE4FA591B491FC01E05AFE4FC591D49106
:1003F00061110EC09FB7F8948C91E22FE0958E2387
:100400008C932881E223E8839FBFDF91CF910895E9
:100410008FB7F894EC91E22BEC938FBFF6CF3FB7F8
:10042000F89480910B0290910C02A0910D02B09172
:100430000E0226B5A89B05C02F3F19F00196A11DFD
:10044000B11D3FBFBA2FA92F982F8827BC01CD011E
:10045000620F711D811D911D42E0660F771F881F7D
:10046000991F4A95D1F708958F929F92AF92BF92AC
:10047000CF92DF92EF92FF926B017C010E940F02FC
:100480004B015C01C114D104E104F104B9F00E94F4
:100490000F02681979098A099B09683E7340810532
:1004A000910580F321E0C21AD108E108F10888EE35
:1004B000880E83E0981EA11CB11CE4CFFF90EF9042
:1004C000DF90CF90BF90AF909F908F900895CF9383
:1004D000DF93EC0161E08A810E94B00164EF71E07A
:1004E00080E090E00E94340260E08A810E94B001C6
:1004F00064EF71E080E090E0DF91CF910C943402E2
:100500000F931F93CF93DF93EC0128813981332719
:10051000F901EA5FFD4F8491F901E054FE4F049127
:10052000F901E658FE4F14911123B1F081110E9498
:100530004901E12FF0E0EE0FFF1FE45DFE4FA591B2
:10054000B491EC910E2341F0CE010296DF91CF9150
:100550001F910F910C94670260E08C81DF91CF9125
:100560001F910F910C94B0011F920F920FB60F9232
:1005700011242F933F938F939F93AF93BF938091B9
:10058000070290910802A0910902B0910A023091ED
:10059000060223E0230F2D3758F50196A11DB11D4A
:1005A000209306028093070290930802A093090209
:1005B000B0930A0280910B0290910C02A0910D025F
:1005C000B0910E020196A11DB11D80930B02909374
:1005D0000C02A0930D02B0930E02BF91AF919F91B8
:1005E0008F913F912F910F900FBE0F901F901895F4
:1005F00026E8230F0296A11DB11DD2CFCF93DF9322
:10060000CDB7DEB72C970FB6F894DEBF0FBECDBFC7
:10061000789484B5826084BD84B5816084BD85B5DD
:10062000826085BD85B5816085BD80916E008160E9
:1006300080936E001092810080918100826080938F
:100640008100809181008160809381008091800091
:100650008160809380008091B10084608093B100BC
:100660008091B00081608093B000809191008260A1
:10067000809391008091910081608093910080919E
:1006800090008160809390008091A10082608093AF
:10069000A1008091A10081608093A1008091A000C1
:1006A00081608093A000809121018260809321016C
:1006B00080912101816080932101809120018160DE
:1006C0008093200180917A00846080937A008091E9
:1006D0007A00826080937A0080917A0081608093B2
:1006E0007A0080917A00806880937A001092C1002D
:1006F00061E086E00E94DE0161E087E00E94DE01A9
:1007000060E08CE00E94DE0160E08BE00E94DE0190
:1007100004E012E08CE0682E712C97E0E92EF12CB9
:100720002BE0C22ED12C36E0A32EB12C40E0842E3B
:1007300040E0942E1A87098778866F82FC86EB86C4
:100740001C830B83DA82C982BE82AD82CE010796FA
:100750000E948002CE0101960E94800281149104C1
:1007600049F30E940000E6CFEE0FFF1F881F8BBFEA
:0C0770000790F691E02D1994F894FFCF4B
:06077C000000000067020E
:00000001FF
